{
  "contractName": "LeagueOfParaohs",
  "abi": [
    {
      "inputs": [
        {
          "internalType": "address",
          "name": "_Play_to_Earn",
          "type": "address"
        },
        {
          "internalType": "address",
          "name": "_Liquidity",
          "type": "address"
        },
        {
          "internalType": "address",
          "name": "_Staking",
          "type": "address"
        },
        {
          "internalType": "address",
          "name": "_Private",
          "type": "address"
        },
        {
          "internalType": "address",
          "name": "_Team",
          "type": "address"
        },
        {
          "internalType": "address",
          "name": "_Public",
          "type": "address"
        },
        {
          "internalType": "address",
          "name": "_Marketing",
          "type": "address"
        },
        {
          "internalType": "address",
          "name": "_NFT_Staking",
          "type": "address"
        },
        {
          "internalType": "address",
          "name": "_Centralized_Exchange",
          "type": "address"
        },
        {
          "internalType": "address",
          "name": "_Advisors",
          "type": "address"
        },
        {
          "internalType": "address",
          "name": "_Community",
          "type": "address"
        },
        {
          "internalType": "address",
          "name": "_Ecosystem_Fund",
          "type": "address"
        }
      ],
      "stateMutability": "nonpayable",
      "type": "constructor"
    },
    {
      "anonymous": false,
      "inputs": [
        {
          "indexed": true,
          "internalType": "address",
          "name": "owner",
          "type": "address"
        },
        {
          "indexed": true,
          "internalType": "address",
          "name": "spender",
          "type": "address"
        },
        {
          "indexed": false,
          "internalType": "uint256",
          "name": "value",
          "type": "uint256"
        }
      ],
      "name": "Approval",
      "type": "event"
    },
    {
      "anonymous": false,
      "inputs": [
        {
          "indexed": true,
          "internalType": "address",
          "name": "previousOwner",
          "type": "address"
        },
        {
          "indexed": true,
          "internalType": "address",
          "name": "newOwner",
          "type": "address"
        }
      ],
      "name": "OwnershipTransferred",
      "type": "event"
    },
    {
      "anonymous": false,
      "inputs": [
        {
          "indexed": true,
          "internalType": "address",
          "name": "from",
          "type": "address"
        },
        {
          "indexed": true,
          "internalType": "address",
          "name": "to",
          "type": "address"
        },
        {
          "indexed": false,
          "internalType": "uint256",
          "name": "value",
          "type": "uint256"
        }
      ],
      "name": "Transfer",
      "type": "event"
    },
    {
      "inputs": [],
      "name": "MAX_SUPPLY",
      "outputs": [
        {
          "internalType": "uint256",
          "name": "",
          "type": "uint256"
        }
      ],
      "stateMutability": "view",
      "type": "function"
    },
    {
      "inputs": [
        {
          "internalType": "address",
          "name": "owner",
          "type": "address"
        },
        {
          "internalType": "address",
          "name": "spender",
          "type": "address"
        }
      ],
      "name": "allowance",
      "outputs": [
        {
          "internalType": "uint256",
          "name": "",
          "type": "uint256"
        }
      ],
      "stateMutability": "view",
      "type": "function"
    },
    {
      "inputs": [
        {
          "internalType": "address",
          "name": "spender",
          "type": "address"
        },
        {
          "internalType": "uint256",
          "name": "amount",
          "type": "uint256"
        }
      ],
      "name": "approve",
      "outputs": [
        {
          "internalType": "bool",
          "name": "",
          "type": "bool"
        }
      ],
      "stateMutability": "nonpayable",
      "type": "function"
    },
    {
      "inputs": [
        {
          "internalType": "address",
          "name": "account",
          "type": "address"
        }
      ],
      "name": "balanceOf",
      "outputs": [
        {
          "internalType": "uint256",
          "name": "",
          "type": "uint256"
        }
      ],
      "stateMutability": "view",
      "type": "function"
    },
    {
      "inputs": [
        {
          "internalType": "uint256",
          "name": "amount",
          "type": "uint256"
        }
      ],
      "name": "burn",
      "outputs": [],
      "stateMutability": "nonpayable",
      "type": "function"
    },
    {
      "inputs": [
        {
          "internalType": "address",
          "name": "account",
          "type": "address"
        },
        {
          "internalType": "uint256",
          "name": "amount",
          "type": "uint256"
        }
      ],
      "name": "burnFrom",
      "outputs": [],
      "stateMutability": "nonpayable",
      "type": "function"
    },
    {
      "inputs": [],
      "name": "decimals",
      "outputs": [
        {
          "internalType": "uint8",
          "name": "",
          "type": "uint8"
        }
      ],
      "stateMutability": "view",
      "type": "function"
    },
    {
      "inputs": [
        {
          "internalType": "address",
          "name": "spender",
          "type": "address"
        },
        {
          "internalType": "uint256",
          "name": "subtractedValue",
          "type": "uint256"
        }
      ],
      "name": "decreaseAllowance",
      "outputs": [
        {
          "internalType": "bool",
          "name": "",
          "type": "bool"
        }
      ],
      "stateMutability": "nonpayable",
      "type": "function"
    },
    {
      "inputs": [
        {
          "internalType": "address",
          "name": "spender",
          "type": "address"
        },
        {
          "internalType": "uint256",
          "name": "addedValue",
          "type": "uint256"
        }
      ],
      "name": "increaseAllowance",
      "outputs": [
        {
          "internalType": "bool",
          "name": "",
          "type": "bool"
        }
      ],
      "stateMutability": "nonpayable",
      "type": "function"
    },
    {
      "inputs": [],
      "name": "name",
      "outputs": [
        {
          "internalType": "string",
          "name": "",
          "type": "string"
        }
      ],
      "stateMutability": "view",
      "type": "function"
    },
    {
      "inputs": [],
      "name": "owner",
      "outputs": [
        {
          "internalType": "address",
          "name": "",
          "type": "address"
        }
      ],
      "stateMutability": "view",
      "type": "function"
    },
    {
      "inputs": [],
      "name": "renounceOwnership",
      "outputs": [],
      "stateMutability": "nonpayable",
      "type": "function"
    },
    {
      "inputs": [],
      "name": "symbol",
      "outputs": [
        {
          "internalType": "string",
          "name": "",
          "type": "string"
        }
      ],
      "stateMutability": "view",
      "type": "function"
    },
    {
      "inputs": [],
      "name": "totalSupply",
      "outputs": [
        {
          "internalType": "uint256",
          "name": "",
          "type": "uint256"
        }
      ],
      "stateMutability": "view",
      "type": "function"
    },
    {
      "inputs": [
        {
          "internalType": "address",
          "name": "to",
          "type": "address"
        },
        {
          "internalType": "uint256",
          "name": "amount",
          "type": "uint256"
        }
      ],
      "name": "transfer",
      "outputs": [
        {
          "internalType": "bool",
          "name": "",
          "type": "bool"
        }
      ],
      "stateMutability": "nonpayable",
      "type": "function"
    },
    {
      "inputs": [
        {
          "internalType": "address",
          "name": "from",
          "type": "address"
        },
        {
          "internalType": "address",
          "name": "to",
          "type": "address"
        },
        {
          "internalType": "uint256",
          "name": "amount",
          "type": "uint256"
        }
      ],
      "name": "transferFrom",
      "outputs": [
        {
          "internalType": "bool",
          "name": "",
          "type": "bool"
        }
      ],
      "stateMutability": "nonpayable",
      "type": "function"
    },
    {
      "inputs": [
        {
          "internalType": "address",
          "name": "newOwner",
          "type": "address"
        }
      ],
      "name": "transferOwnership",
      "outputs": [],
      "stateMutability": "nonpayable",
      "type": "function"
    }
  ],
  "bytecode": "0x60806040523480156200001157600080fd5b506040516200158338038062001583833981016040819052620000349162000574565b6040518060400160405280600f81526020017f4c65616775654f66506172616f687300000000000000000000000000000000008152506040518060400160405280600381526020017f4c4f5000000000000000000000000000000000000000000000000000000000008152508160039080519060200190620000b8929190620004b1565b508051620000ce906004906020840190620004b1565b505050620000fd620000ee62000343640100000000026401000000009004565b64010000000062000347810204565b620001418c6200011564010000000062000399810204565b6200012290600a6200079a565b6200013290639502f900620007b2565b6401000000006200039e810204565b620001768b6200015964010000000062000399810204565b6200016690600a6200079a565b62000132906305f5e100620007b2565b620001ab8a6200018e64010000000062000399810204565b6200019b90600a6200079a565b62000132906359682f00620007b2565b620001e089620001c364010000000062000399810204565b620001d090600a6200079a565b6200013290633b9aca00620007b2565b6200021588620001f864010000000062000399810204565b6200020590600a6200079a565b62000132906377359400620007b2565b6200024a876200022d64010000000062000399810204565b6200023a90600a6200079a565b6200013290630bebc200620007b2565b6200027f866200026264010000000062000399810204565b6200026f90600a6200079a565b6200013290631dcd6500620007b2565b620002b4856200029764010000000062000399810204565b620002a490600a6200079a565b6200013290632faf0800620007b2565b620002cc846200026264010000000062000399810204565b6200030183620002e464010000000062000399810204565b620002f190600a6200079a565b62000132906317d78400620007b2565b62000319826200015964010000000062000399810204565b6200033181620002e464010000000062000399810204565b50505050505050505050505062000844565b3390565b60058054600160a060020a03838116600160a060020a0319831681179093556040519116919082907f8be0079c531659141344cd1fd0a4f28419497f9722a3daafe3b4186f6b6457e090600090a35050565b601290565b600160a060020a03821662000413576040517f08c379a000000000000000000000000000000000000000000000000000000000815260206004820152601f60248201527f45524332303a206d696e7420746f20746865207a65726f206164647265737300604482015260640160405180910390fd5b6200042a60008383640100000000620004ac810204565b80600260008282546200043e9190620007d4565b9091555050600160a060020a038216600081815260208181526040808320805486019055518481527fddf252ad1be2c89b69c2b068fc378daa952ba7f163c4a11628f55a4df523b3ef910160405180910390a3620004a860008383640100000000620004ac810204565b5050565b505050565b828054620004bf90620007ef565b90600052602060002090601f016020900481019282620004e357600085556200052e565b82601f10620004fe57805160ff19168380011785556200052e565b828001600101855582156200052e579182015b828111156200052e57825182559160200191906001019062000511565b506200053c92915062000540565b5090565b5b808211156200053c576000815560010162000541565b8051600160a060020a03811681146200056f57600080fd5b919050565b6000806000806000806000806000806000806101808d8f0312156200059857600080fd5b620005a38d62000557565b9b50620005b360208e0162000557565b9a50620005c360408e0162000557565b9950620005d360608e0162000557565b9850620005e360808e0162000557565b9750620005f360a08e0162000557565b96506200060360c08e0162000557565b95506200061360e08e0162000557565b9450620006246101008e0162000557565b9350620006356101208e0162000557565b9250620006466101408e0162000557565b9150620006576101608e0162000557565b90509295989b509295989b509295989b565b7f4e487b7100000000000000000000000000000000000000000000000000000000600052601160045260246000fd5b600181815b80851115620006db578160001904821115620006bd57620006bd62000669565b80851615620006cb57918102915b600290940493908002906200069d565b509250929050565b600082620006f45750600162000794565b81620007035750600062000794565b81600181146200071c5760028114620007275762000748565b600191505062000794565b60ff8411156200073b576200073b62000669565b8360020a91505062000794565b5060208310610133831016604e8410600b84101617156200076d575081810a62000794565b62000779838362000698565b806000190482111562000790576200079062000669565b0290505b92915050565b6000620007ab60ff841683620006e3565b9392505050565b6000816000190483118215151615620007cf57620007cf62000669565b500290565b60008219821115620007ea57620007ea62000669565b500190565b6002810460018216806200080457607f821691505b6020821081036200083e577f4e487b7100000000000000000000000000000000000000000000000000000000600052602260045260246000fd5b50919050565b610d2f80620008546000396000f3fe608060405234801561001057600080fd5b5060043610610128576000357c01000000000000000000000000000000000000000000000000000000009004806370a08231116100bf57806395d89b411161008e57806395d89b411461023c578063a457c2d714610244578063a9059cbb14610257578063dd62ed3e1461026a578063f2fde38b1461027d57600080fd5b806370a08231146101dd578063715018a61461020657806379cc67901461020e5780638da5cb5b1461022157600080fd5b8063313ce567116100fb578063313ce5671461019357806332cb6b0c146101a257806339509351146101b557806342966c68146101c857600080fd5b806306fdde031461012d578063095ea7b31461014b57806318160ddd1461016e57806323b872dd14610180575b600080fd5b610135610290565b6040516101429190610b22565b60405180910390f35b61015e610159366004610b93565b610322565b6040519015158152602001610142565b6002545b604051908152602001610142565b61015e61018e366004610bbd565b61033a565b60405160128152602001610142565b6101726b204fce5e3e2502611000000081565b61015e6101c3366004610b93565b61035e565b6101db6101d6366004610bf9565b610380565b005b6101726101eb366004610c12565b600160a060020a031660009081526020819052604090205490565b6101db61038d565b6101db61021c366004610b93565b6103a1565b600554604051600160a060020a039091168152602001610142565b6101356103ba565b61015e610252366004610b93565b6103c9565b61015e610265366004610b93565b610464565b610172610278366004610c34565b610472565b6101db61028b366004610c12565b61049d565b60606003805461029f90610c67565b80601f01602080910402602001604051908101604052809291908181526020018280546102cb90610c67565b80156103185780601f106102ed57610100808354040283529160200191610318565b820191906000526020600020905b8154815290600101906020018083116102fb57829003601f168201915b5050505050905090565b60003361033081858561052d565b5060019392505050565b60003361034885828561068c565b610353858585610709565b506001949350505050565b6000336103308185856103718383610472565b61037b9190610cba565b61052d565b61038a33826108ff565b50565b610395610a66565b61039f6000610ac3565b565b6103ac82338361068c565b6103b682826108ff565b5050565b60606004805461029f90610c67565b600033816103d78286610472565b9050838110156104575760405160e560020a62461bcd02815260206004820152602560248201527f45524332303a2064656372656173656420616c6c6f77616e63652062656c6f7760448201527f207a65726f00000000000000000000000000000000000000000000000000000060648201526084015b60405180910390fd5b610353828686840361052d565b600033610330818585610709565b600160a060020a03918216600090815260016020908152604080832093909416825291909152205490565b6104a5610a66565b600160a060020a0381166105245760405160e560020a62461bcd02815260206004820152602660248201527f4f776e61626c653a206e6577206f776e657220697320746865207a65726f206160448201527f6464726573730000000000000000000000000000000000000000000000000000606482015260840161044e565b61038a81610ac3565b600160a060020a0383166105ab5760405160e560020a62461bcd028152602060048201526024808201527f45524332303a20617070726f76652066726f6d20746865207a65726f2061646460448201527f7265737300000000000000000000000000000000000000000000000000000000606482015260840161044e565b600160a060020a03821661062a5760405160e560020a62461bcd02815260206004820152602260248201527f45524332303a20617070726f766520746f20746865207a65726f20616464726560448201527f7373000000000000000000000000000000000000000000000000000000000000606482015260840161044e565b600160a060020a0383811660008181526001602090815260408083209487168084529482529182902085905590518481527f8c5be1e5ebec7d5bd14f71427d1e84f3dd0314c0f7b2291e5b200ac8c7c3b92591015b60405180910390a3505050565b60006106988484610472565b9050600019811461070357818110156106f65760405160e560020a62461bcd02815260206004820152601d60248201527f45524332303a20696e73756666696369656e7420616c6c6f77616e6365000000604482015260640161044e565b610703848484840361052d565b50505050565b600160a060020a0383166107885760405160e560020a62461bcd02815260206004820152602560248201527f45524332303a207472616e736665722066726f6d20746865207a65726f20616460448201527f6472657373000000000000000000000000000000000000000000000000000000606482015260840161044e565b600160a060020a0382166108075760405160e560020a62461bcd02815260206004820152602360248201527f45524332303a207472616e7366657220746f20746865207a65726f206164647260448201527f6573730000000000000000000000000000000000000000000000000000000000606482015260840161044e565b600160a060020a038316600090815260208190526040902054818110156108995760405160e560020a62461bcd02815260206004820152602660248201527f45524332303a207472616e7366657220616d6f756e742065786365656473206260448201527f616c616e63650000000000000000000000000000000000000000000000000000606482015260840161044e565b600160a060020a03848116600081815260208181526040808320878703905593871680835291849020805487019055925185815290927fddf252ad1be2c89b69c2b068fc378daa952ba7f163c4a11628f55a4df523b3ef910160405180910390a3610703565b600160a060020a03821661097e5760405160e560020a62461bcd02815260206004820152602160248201527f45524332303a206275726e2066726f6d20746865207a65726f2061646472657360448201527f7300000000000000000000000000000000000000000000000000000000000000606482015260840161044e565b600160a060020a03821660009081526020819052604090205481811015610a105760405160e560020a62461bcd02815260206004820152602260248201527f45524332303a206275726e20616d6f756e7420657863656564732062616c616e60448201527f6365000000000000000000000000000000000000000000000000000000000000606482015260840161044e565b600160a060020a0383166000818152602081815260408083208686039055600280548790039055518581529192917fddf252ad1be2c89b69c2b068fc378daa952ba7f163c4a11628f55a4df523b3ef910161067f565b600554600160a060020a0316331461039f5760405160e560020a62461bcd02815260206004820181905260248201527f4f776e61626c653a2063616c6c6572206973206e6f7420746865206f776e6572604482015260640161044e565b60058054600160a060020a0383811673ffffffffffffffffffffffffffffffffffffffff19831681179093556040519116919082907f8be0079c531659141344cd1fd0a4f28419497f9722a3daafe3b4186f6b6457e090600090a35050565b600060208083528351808285015260005b81811015610b4f57858101830151858201604001528201610b33565b81811115610b61576000604083870101525b50601f01601f1916929092016040019392505050565b8035600160a060020a0381168114610b8e57600080fd5b919050565b60008060408385031215610ba657600080fd5b610baf83610b77565b946020939093013593505050565b600080600060608486031215610bd257600080fd5b610bdb84610b77565b9250610be960208501610b77565b9150604084013590509250925092565b600060208284031215610c0b57600080fd5b5035919050565b600060208284031215610c2457600080fd5b610c2d82610b77565b9392505050565b60008060408385031215610c4757600080fd5b610c5083610b77565b9150610c5e60208401610b77565b90509250929050565b600281046001821680610c7b57607f821691505b602082108103610cb4577f4e487b7100000000000000000000000000000000000000000000000000000000600052602260045260246000fd5b50919050565b60008219821115610cf4577f4e487b7100000000000000000000000000000000000000000000000000000000600052601160045260246000fd5b50019056fea26469706673582212202868ca997f9ad57040ebc5a7dfe0ddfa0895a430023c00ff169745fbcff175c264736f6c634300080e0033",
  "immutableReferences": {},
  "source": "// SPDX-License-Identifier: MIT\r\npragma solidity ^0.8.9;\r\n\r\nimport \"@openzeppelin/contracts/token/ERC20/ERC20.sol\";\r\nimport \"@openzeppelin/contracts/token/ERC20/extensions/ERC20Burnable.sol\";\r\nimport \"@openzeppelin/contracts/access/Ownable.sol\";\r\n\r\ncontract LeagueOfParaohs is ERC20, ERC20Burnable, Ownable {\r\n     uint256 public constant MAX_SUPPLY = 10_000_000_000_000_000_000_000_000_000;\r\n    constructor(   \r\n    address _Play_to_Earn,\r\n    address _Liquidity,\r\n    address _Staking,\r\n    address _Private,\r\n    address _Team,\r\n    address _Public,\r\n    address _Marketing,\r\n    address _NFT_Staking,\r\n    address _Centralized_Exchange,\r\n    address _Advisors,\r\n    address _Community,\r\n    address _Ecosystem_Fund\r\n    ) ERC20(\"LeagueOfParaohs\", \"LOP\") {\r\n    _mint(_Play_to_Earn , 2_500_000_000 * (10 ** decimals()));\r\n    _mint(_Liquidity , 100_000_000 * (10 ** decimals()));\r\n    _mint(_Staking , 1_500_000_000 * (10 ** decimals()));\r\n    _mint(_Private , 1_000_000_000 * (10 ** decimals()));\r\n    _mint(_Team , 2_000_000_000 * (10 ** decimals()));\r\n    _mint(_Public , 200_000_000 * (10 ** decimals()));\r\n    _mint(_Marketing , 500_000_000 * (10 ** decimals()));\r\n    _mint(_NFT_Staking , 800_000_000 * (10 ** decimals()));\r\n    _mint(_Centralized_Exchange , 500_000_000 * (10 ** decimals()));\r\n    _mint(_Advisors , 400_000_000 * (10 ** decimals()));\r\n    _mint(_Community , 100_000_000 * (10 ** decimals()));\r\n    _mint(_Ecosystem_Fund , 400_000_000 * (10 ** decimals()));\r\n    }\r\n}",
  "sourcePath": "C:\\work\\lop-contracts\\contracts\\LopToken.sol",
  "compiler": {
    "name": "solc",
    "version": "0.8.14+commit.80d49f37.Emscripten.clang"
  },
  "schemaVersion": "3.4.10",
  "updatedAt": "2022-11-14T14:12:01.803Z",
  "devdoc": {
    "kind": "dev",
    "methods": {
      "allowance(address,address)": {
        "details": "See {IERC20-allowance}."
      },
      "approve(address,uint256)": {
        "details": "See {IERC20-approve}. NOTE: If `amount` is the maximum `uint256`, the allowance is not updated on `transferFrom`. This is semantically equivalent to an infinite approval. Requirements: - `spender` cannot be the zero address."
      },
      "balanceOf(address)": {
        "details": "See {IERC20-balanceOf}."
      },
      "burn(uint256)": {
        "details": "Destroys `amount` tokens from the caller. See {ERC20-_burn}."
      },
      "burnFrom(address,uint256)": {
        "details": "Destroys `amount` tokens from `account`, deducting from the caller's allowance. See {ERC20-_burn} and {ERC20-allowance}. Requirements: - the caller must have allowance for ``accounts``'s tokens of at least `amount`."
      },
      "decimals()": {
        "details": "Returns the number of decimals used to get its user representation. For example, if `decimals` equals `2`, a balance of `505` tokens should be displayed to a user as `5.05` (`505 / 10 ** 2`). Tokens usually opt for a value of 18, imitating the relationship between Ether and Wei. This is the value {ERC20} uses, unless this function is overridden; NOTE: This information is only used for _display_ purposes: it in no way affects any of the arithmetic of the contract, including {IERC20-balanceOf} and {IERC20-transfer}."
      },
      "decreaseAllowance(address,uint256)": {
        "details": "Atomically decreases the allowance granted to `spender` by the caller. This is an alternative to {approve} that can be used as a mitigation for problems described in {IERC20-approve}. Emits an {Approval} event indicating the updated allowance. Requirements: - `spender` cannot be the zero address. - `spender` must have allowance for the caller of at least `subtractedValue`."
      },
      "increaseAllowance(address,uint256)": {
        "details": "Atomically increases the allowance granted to `spender` by the caller. This is an alternative to {approve} that can be used as a mitigation for problems described in {IERC20-approve}. Emits an {Approval} event indicating the updated allowance. Requirements: - `spender` cannot be the zero address."
      },
      "name()": {
        "details": "Returns the name of the token."
      },
      "owner()": {
        "details": "Returns the address of the current owner."
      },
      "renounceOwnership()": {
        "details": "Leaves the contract without owner. It will not be possible to call `onlyOwner` functions anymore. Can only be called by the current owner. NOTE: Renouncing ownership will leave the contract without an owner, thereby removing any functionality that is only available to the owner."
      },
      "symbol()": {
        "details": "Returns the symbol of the token, usually a shorter version of the name."
      },
      "totalSupply()": {
        "details": "See {IERC20-totalSupply}."
      },
      "transfer(address,uint256)": {
        "details": "See {IERC20-transfer}. Requirements: - `to` cannot be the zero address. - the caller must have a balance of at least `amount`."
      },
      "transferFrom(address,address,uint256)": {
        "details": "See {IERC20-transferFrom}. Emits an {Approval} event indicating the updated allowance. This is not required by the EIP. See the note at the beginning of {ERC20}. NOTE: Does not update the allowance if the current allowance is the maximum `uint256`. Requirements: - `from` and `to` cannot be the zero address. - `from` must have a balance of at least `amount`. - the caller must have allowance for ``from``'s tokens of at least `amount`."
      },
      "transferOwnership(address)": {
        "details": "Transfers ownership of the contract to a new account (`newOwner`). Can only be called by the current owner."
      }
    },
    "version": 1
  },
  "userdoc": {
    "kind": "user",
    "methods": {},
    "version": 1
  }
}